{
	"_format": "hh-sol-artifact-1",
	"contractName": "Overnight",
	"sourceName": "contracts/Overnight.sol",
	"abi": [
		{
			"inputs": [
				{
					"internalType": "address",
					"name": "_BRLtAddress",
					"type": "address"
				}
			],
			"stateMutability": "nonpayable",
			"type": "constructor"
		},
		{
			"inputs": [
				{
					"internalType": "address",
					"name": "owner",
					"type": "address"
				}
			],
			"name": "OwnableInvalidOwner",
			"type": "error"
		},
		{
			"inputs": [
				{
					"internalType": "address",
					"name": "account",
					"type": "address"
				}
			],
			"name": "OwnableUnauthorizedAccount",
			"type": "error"
		},
		{
			"anonymous": false,
			"inputs": [
				{
					"indexed": true,
					"internalType": "address",
					"name": "previousOwner",
					"type": "address"
				},
				{
					"indexed": true,
					"internalType": "address",
					"name": "newOwner",
					"type": "address"
				}
			],
			"name": "OwnershipTransferred",
			"type": "event"
		},
		{
			"inputs": [],
			"name": "BRLtAddress",
			"outputs": [
				{
					"internalType": "address",
					"name": "",
					"type": "address"
				}
			],
			"stateMutability": "view",
			"type": "function"
		},
		{
			"inputs": [
				{
					"internalType": "address",
					"name": "account",
					"type": "address"
				}
			],
			"name": "addPrivilegedAccount",
			"outputs": [],
			"stateMutability": "nonpayable",
			"type": "function"
		},
		{
			"inputs": [
				{
					"internalType": "string",
					"name": "_institution",
					"type": "string"
				},
				{
					"internalType": "uint256",
					"name": "_totalAmount",
					"type": "uint256"
				},
				{
					"internalType": "address",
					"name": "_collateralAsset",
					"type": "address"
				}
			],
			"name": "createLiquidityRequest",
			"outputs": [
				{
					"internalType": "bool",
					"name": "",
					"type": "bool"
				}
			],
			"stateMutability": "nonpayable",
			"type": "function"
		},
		{
			"inputs": [
				{
					"internalType": "uint256",
					"name": "_liquidityRequestIndex",
					"type": "uint256"
				}
			],
			"name": "defaultPayment",
			"outputs": [
				{
					"internalType": "bool",
					"name": "",
					"type": "bool"
				}
			],
			"stateMutability": "nonpayable",
			"type": "function"
		},
		{
			"inputs": [
				{
					"internalType": "uint256",
					"name": "",
					"type": "uint256"
				}
			],
			"name": "liquidityRequests",
			"outputs": [
				{
					"internalType": "string",
					"name": "institution",
					"type": "string"
				},
				{
					"internalType": "address",
					"name": "institutionAddress",
					"type": "address"
				},
				{
					"internalType": "uint256",
					"name": "totalAmount",
					"type": "uint256"
				},
				{
					"internalType": "uint256",
					"name": "raisedAmount",
					"type": "uint256"
				},
				{
					"internalType": "address",
					"name": "collateralAsset",
					"type": "address"
				},
				{
					"internalType": "uint256",
					"name": "collateralAmount",
					"type": "uint256"
				},
				{
					"internalType": "uint256",
					"name": "requestDate",
					"type": "uint256"
				},
				{
					"internalType": "enum Overnight.Status",
					"name": "status",
					"type": "uint8"
				}
			],
			"stateMutability": "view",
			"type": "function"
		},
		{
			"inputs": [],
			"name": "owner",
			"outputs": [
				{
					"internalType": "address",
					"name": "",
					"type": "address"
				}
			],
			"stateMutability": "view",
			"type": "function"
		},
		{
			"inputs": [
				{
					"internalType": "uint256",
					"name": "_liquidityRequestIndex",
					"type": "uint256"
				}
			],
			"name": "payCreditors",
			"outputs": [
				{
					"internalType": "bool",
					"name": "",
					"type": "bool"
				}
			],
			"stateMutability": "nonpayable",
			"type": "function"
		},
		{
			"inputs": [
				{
					"internalType": "address",
					"name": "",
					"type": "address"
				}
			],
			"name": "privilegedAccounts",
			"outputs": [
				{
					"internalType": "bool",
					"name": "",
					"type": "bool"
				}
			],
			"stateMutability": "view",
			"type": "function"
		},
		{
			"inputs": [
				{
					"internalType": "address",
					"name": "_NTBtAddress",
					"type": "address"
				},
				{
					"internalType": "address",
					"name": "_from",
					"type": "address"
				},
				{
					"internalType": "address",
					"name": "_to",
					"type": "address"
				},
				{
					"internalType": "uint256",
					"name": "_amount",
					"type": "uint256"
				}
			],
			"name": "privilegedTransferNTBt",
			"outputs": [],
			"stateMutability": "nonpayable",
			"type": "function"
		},
		{
			"inputs": [
				{
					"internalType": "address",
					"name": "_from",
					"type": "address"
				},
				{
					"internalType": "address",
					"name": "_to",
					"type": "address"
				},
				{
					"internalType": "uint256",
					"name": "_amount",
					"type": "uint256"
				}
			],
			"name": "privilegedTransferReal",
			"outputs": [],
			"stateMutability": "nonpayable",
			"type": "function"
		},
		{
			"inputs": [
				{
					"internalType": "uint256",
					"name": "_liquidityRequestIndex",
					"type": "uint256"
				},
				{
					"internalType": "uint256",
					"name": "_provideAmount",
					"type": "uint256"
				}
			],
			"name": "provideLiquidity",
			"outputs": [
				{
					"internalType": "bool",
					"name": "",
					"type": "bool"
				}
			],
			"stateMutability": "nonpayable",
			"type": "function"
		},
		{
			"inputs": [
				{
					"internalType": "address",
					"name": "account",
					"type": "address"
				}
			],
			"name": "removePrivilegedAccount",
			"outputs": [],
			"stateMutability": "nonpayable",
			"type": "function"
		},
		{
			"inputs": [],
			"name": "renounceOwnership",
			"outputs": [],
			"stateMutability": "nonpayable",
			"type": "function"
		},
		{
			"inputs": [
				{
					"internalType": "address",
					"name": "newOwner",
					"type": "address"
				}
			],
			"name": "transferOwnership",
			"outputs": [],
			"stateMutability": "nonpayable",
			"type": "function"
		}
	],
	"bytecode": "0x608060405234801561001057600080fd5b5060405161153338038061153383398101604081905261002f91610100565b338061005557604051631e4fbdf760e01b81526000600482015260240160405180910390fd5b61005e816100b0565b50600180546001600160a01b0319166001600160a01b039290921691909117815533600090815260026020526040808220805460ff199081168517909155308352912080549091169091179055610130565b600080546001600160a01b038381166001600160a01b0319831681178455604051919092169283917f8be0079c531659141344cd1fd0a4f28419497f9722a3daafe3b4186f6b6457e09190a35050565b60006020828403121561011257600080fd5b81516001600160a01b038116811461012957600080fd5b9392505050565b6113f48061013f6000396000f3fe608060405234801561001057600080fd5b50600436106100ea5760003560e01c80637a16af7f1161008c578063958246761161006657806395824676146101f3578063cf322cf114610206578063ea0b969c14610219578063f2fde38b1461022c57600080fd5b80637a16af7f146101ac5780638399a501146101bf5780638da5cb5b146101e257600080fd5b8063334188c8116100c8578063334188c81461015757806359829be61461017e5780636b2027ec14610191578063715018a6146101a457600080fd5b8063051d2cc4146100ef578063184df5c71461011757806329db73f814610142575b600080fd5b6101026100fd366004610e57565b61023f565b60405190151581526020015b60405180910390f35b60015461012a906001600160a01b031681565b6040516001600160a01b03909116815260200161010e565b610155610150366004610e87565b610480565b005b61016a610165366004610e57565b6104ac565b60405161010e989796959493929190610ee1565b61015561018c366004610f90565b61059d565b61010261019f366004610fe2565b610651565b6101556107aa565b6101026101ba3660046110ad565b6107be565b6101026101cd366004610e87565b60026020526000908152604090205460ff1681565b6000546001600160a01b031661012a565b6101556102013660046110cf565b610a2f565b610155610214366004610e87565b610ae0565b610102610227366004610e57565b610b09565b61015561023a366004610e87565b610d9c565b3360009081526002602052604081205460ff166102775760405162461bcd60e51b815260040161026e9061111a565b60405180910390fd5b60045482106102985760405162461bcd60e51b815260040161026e9061115f565b6000600483815481106102ad576102ad611196565b60009182526020909120600a9091020160018101549091506001600160a01b0316331461031c5760405162461bcd60e51b815260206004820152601a60248201527f546869732072657175657374206973206e6f7420796f75727321000000000000604482015260640161026e565b60005b600782015481101561043d57600082600701828154811061034257610342611196565b60009182526020808320909101546001600160a01b031680835260088601909152604090912054909150801561042857600480850154604080516325ca7a8760e11b81529051600093670de0b6b3a7640000936001600160a01b031692634b94f50e9281830192602092829003018188875af11580156103c6573d6000803e3d6000fd5b505050506040513d601f19601f820116820180604052508101906103ea91906111ac565b6103f490846111db565b6103fe91906111f2565b905061040b33848361059d565b506001600160a01b03821660009081526008850160205260408120555b5050808061043590611214565b91505061031f565b50600481015460018201546005830154610467926001600160a01b03908116923092911690610a2f565b600901805460ff1916600190811790915590505b919050565b610488610dda565b6001600160a01b03166000908152600260205260409020805460ff19166001179055565b600481815481106104bc57600080fd5b90600052602060002090600a02016000915090508060000180546104df9061122d565b80601f016020809104026020016040519081016040528092919081815260200182805461050b9061122d565b80156105585780601f1061052d57610100808354040283529160200191610558565b820191906000526020600020905b81548152906001019060200180831161053b57829003601f168201915b50505060018401546002850154600386015460048701546005880154600689015460099099015497986001600160a01b03958616989497509295509316929160ff1688565b3360009081526002602052604090205460ff166105cc5760405162461bcd60e51b815260040161026e9061111a565b600154604051631bab33d360e21b81526001600160a01b03858116600483015284811660248301526044820184905290911690636eaccf4c906064016020604051808303816000875af1158015610627573d6000803e3d6000fd5b505050506040513d601f19601f8201168201806040525081019061064b9190611267565b50505050565b3360009081526002602052604081205460ff166106805760405162461bcd60e51b815260040161026e9061111a565b60048054600181018255600091909152600a027f8a35acfbc15ff81a39ae7d344fd709f28e8600b4aa8c65c6b64bfe7fe36bd19b01806106c086826112d8565b506001810180546001600160a01b0319908116331790915560028201859055600060038301819055600480840180546001600160a01b038816941684179055604080516325ca7a8760e11b81529051634b94f50e938284019360209383900301908290875af1158015610737573d6000803e3d6000fd5b505050506040513d601f19601f8201168201806040525081019061075b91906111ac565b61076d85670de0b6b3a76400006111db565b61077791906111f2565b6005820181905542600683015560098201805460ff1916905561079f90849033903090610a2f565b506001949350505050565b6107b2610dda565b6107bc6000610e07565b565b3360009081526002602052604081205460ff166107ed5760405162461bcd60e51b815260040161026e9061111a565b600454831061080e5760405162461bcd60e51b815260040161026e9061115f565b6004838154811061082157610821611196565b90600052602060002090600a0201600301546004848154811061084657610846611196565b90600052602060002090600a0201600201546108629190611398565b8211156108c35760405162461bcd60e51b815260206004820152602960248201527f546869732076616c75652065786365656473207468652076616c756520746f206044820152681899481c985a5cd95960ba1b606482015260840161026e565b6108fd33600485815481106108da576108da611196565b600091825260209091206001600a9092020101546001600160a01b03168461059d565b816004848154811061091157610911611196565b90600052602060002090600a0201600301600082825461093191906113ab565b9091555050600480548490811061094a5761094a611196565b600091825260208083203384526008600a90930201919091019052604081205490036109b8576004838154811061098357610983611196565b600091825260208083206007600a9093020191909101805460018101825590835291200180546001600160a01b031916331790555b81600484815481106109cc576109cc611196565b600091825260208083203384526008600a909302019190910190526040812080549091906109fb9084906113ab565b90915550503360009081526003602052604081208054849290610a1f9084906113ab565b9091555060019150505b92915050565b3360009081526002602052604090205460ff16610a5e5760405162461bcd60e51b815260040161026e9061111a565b604051631bab33d360e21b81526001600160a01b038481166004830152838116602483015260448201839052851690636eaccf4c906064016020604051808303816000875af1158015610ab5573d6000803e3d6000fd5b505050506040513d601f19601f82011682018060405250810190610ad99190611267565b5050505050565b610ae8610dda565b6001600160a01b03166000908152600260205260409020805460ff19169055565b3360009081526002602052604081205460ff16610b385760405162461bcd60e51b815260040161026e9061111a565b6004548210610b595760405162461bcd60e51b815260040161026e9061115f565b600060048381548110610b6e57610b6e611196565b600091825260208220600a909102019150600982015460ff166001811115610b9857610b98610ea9565b14610bd55760405162461bcd60e51b815260206004820152600d60248201526c14dd185d1d5cc818db1bdcd959609a1b604482015260640161026e565b6006810154610be790620151806113ab565b421015610c365760405162461bcd60e51b815260206004820152601e60248201527f43616e6e6f742064656661756c74206265666f726520323420686f7572730000604482015260640161026e565b33600090815260088201602052604090205480610c955760405162461bcd60e51b815260206004820152601f60248201527f4e6f206c69717569646974792070726f76696465642062792073656e64657200604482015260640161026e565b60008260040160009054906101000a90046001600160a01b03166001600160a01b0316634b94f50e6040518163ffffffff1660e01b81526004016020604051808303816000875af1158015610cee573d6000803e3d6000fd5b505050506040513d601f19601f82011682018060405250810190610d1291906111ac565b610d2483670de0b6b3a76400006111db565b610d2e91906111f2565b6004840154909150610d4b906001600160a01b0316303384610a2f565b81836003016000828254610d5f9190611398565b9250508190555080836005016000828254610d7a9190611398565b9091555050336000908152600890930160205250506040812055506001919050565b610da4610dda565b6001600160a01b038116610dce57604051631e4fbdf760e01b81526000600482015260240161026e565b610dd781610e07565b50565b6000546001600160a01b031633146107bc5760405163118cdaa760e01b815233600482015260240161026e565b600080546001600160a01b038381166001600160a01b0319831681178455604051919092169283917f8be0079c531659141344cd1fd0a4f28419497f9722a3daafe3b4186f6b6457e09190a35050565b600060208284031215610e6957600080fd5b5035919050565b80356001600160a01b038116811461047b57600080fd5b600060208284031215610e9957600080fd5b610ea282610e70565b9392505050565b634e487b7160e01b600052602160045260246000fd5b60028110610edd57634e487b7160e01b600052602160045260246000fd5b9052565b60006101008083528a518082850152600091505b80821015610f17576020828d0101516101208386010152602082019150610ef5565b6101209150600082828601015281601f19601f83011685010192505050610f49602083018a6001600160a01b03169052565b876040830152866060830152610f6a60808301876001600160a01b03169052565b8460a08301528360c0830152610f8360e0830184610ebf565b9998505050505050505050565b600080600060608486031215610fa557600080fd5b610fae84610e70565b9250610fbc60208501610e70565b9150604084013590509250925092565b634e487b7160e01b600052604160045260246000fd5b600080600060608486031215610ff757600080fd5b833567ffffffffffffffff8082111561100f57600080fd5b818601915086601f83011261102357600080fd5b81358181111561103557611035610fcc565b604051601f8201601f19908116603f0116810190838211818310171561105d5761105d610fcc565b8160405282815289602084870101111561107657600080fd5b826020860160208301376000602084830101528097505050505050602084013591506110a460408501610e70565b90509250925092565b600080604083850312156110c057600080fd5b50508035926020909101359150565b600080600080608085870312156110e557600080fd5b6110ee85610e70565b93506110fc60208601610e70565b925061110a60408601610e70565b9396929550929360600135925050565b60208082526025908201527f41636573736f206e656761646f3a20636f6e7461206e616f2070726976696c65604082015264676961646160d81b606082015260800190565b6020808252601b908201527f5265717565737420696e646578206f7574206f6620626f756e64730000000000604082015260600190565b634e487b7160e01b600052603260045260246000fd5b6000602082840312156111be57600080fd5b5051919050565b634e487b7160e01b600052601160045260246000fd5b8082028115828204841417610a2957610a296111c5565b60008261120f57634e487b7160e01b600052601260045260246000fd5b500490565b600060018201611226576112266111c5565b5060010190565b600181811c9082168061124157607f821691505b60208210810361126157634e487b7160e01b600052602260045260246000fd5b50919050565b60006020828403121561127957600080fd5b81518015158114610ea257600080fd5b601f8211156112d357600081815260208120601f850160051c810160208610156112b05750805b601f850160051c820191505b818110156112cf578281556001016112bc565b5050505b505050565b815167ffffffffffffffff8111156112f2576112f2610fcc565b61130681611300845461122d565b84611289565b602080601f83116001811461133b57600084156113235750858301515b600019600386901b1c1916600185901b1785556112cf565b600085815260208120601f198616915b8281101561136a5788860151825594840194600190910190840161134b565b50858210156113885787850151600019600388901b60f8161c191681555b5050505050600190811b01905550565b81810381811115610a2957610a296111c5565b80820180821115610a2957610a296111c556fea26469706673582212201ffae98ade3fed7c705428b34e019decedd655b8fbf25202e74deddf0a95535764736f6c63430008140033",
	"linkReferences": {},
	"deployedLinkReferences": {}
}